:100000002BC04FC030C24DC04CC04BC04AC049C0CD
:1000100048C047C046C0DDC144C043C042C041C023
:1000200040C000003A00370000003B0038000000EC
:100030003900360001010101010101010202020142
:1000400002040810204080040201000000000004A7
:10005000030201000000230411241FBECFE5D2E0FB
:10006000DEBFCDBF10E0A0E6B0E0E0E8FCE002C0FB
:1000700005900D92A237B107D9F720E0A2E7B0E0D2
:1000800001C01D92A13DB207E1F710E0CCE2D0E043
:1000900003C02197FE01ECD5CB32D107D1F70BD3AA
:1000A000EDC5AECF8230A1F018F4813069F008952B
:1000B000833019F0843029F008958FB58F778FBD84
:1000C00008958FB58F7DFBCF80B78F7780BF089560
:1000D00080B78F7DFBCFCF93DF93282F30E0F901DE
:1000E000E65BFF4F8491F901E15CFF4FD491F90188
:1000F000EC5CFF4FC491CC2399F08111D3DFEC2F3E
:10010000F0E0EE0FFF1FE25DFF4FA591B491EC917F
:10011000ED2381E090E009F480E0DF91CF91089534
:1001200080E090E0FACF1F93CF93DF93282F30E049
:10013000F901E65BFF4F8491F901E15CFF4FD49137
:10014000F901EC5CFF4FC491CC23A1F0162F811173
:10015000A9DFEC2FF0E0EE0FFF1FE85DFF4FA59148
:10016000B4918FB7F894EC91111108C0D095DE23AB
:10017000DC938FBFDF91CF911F910895DE2BF8CFD5
:10018000CF93DF9390E0FC01E15CFF4F24918C5C06
:100190009F4FFC0184918823D1F090E0880F991F34
:1001A000FC01EE5DFF4FA591B491FC01E85DFF4FAE
:1001B000C591D491623071F49FB7F8943C91822F2D
:1001C000809583238C93E8812E2B28839FBFDF911A
:1001D000CF9108958FB7F894EC912E2B2C938FBF6D
:1001E000F6CF1F93CF93DF93182FEB0161E0C8DFA9
:1001F000209731F460E0812FDF91CF911F9193CF51
:10020000CF3FD10511F461E0F6CFE12FF0E0E65BDE
:10021000FF4FE491E230C9F030F4E13071F0C038C2
:10022000D1058CF7E7CFE330A9F0E430C1F78FB503
:1002300080628FBDD9BDC8BD04C080B7806880BF53
:10024000C6BFDF91CF911F91089580B7806280BFB4
:10025000CCBFF7CF8FB580688FBDDBBDCABDF1CFF6
:100260008E3008F08E5023B1982F990F990F90720D
:100270002F7D922B93B9877087B9369A3699FECF26
:1002800084B195B108952FB7F8946091B80070913A
:10029000B9008091BA009091BB002FBF08954F9292
:1002A0005F926F927F928F929F92AF92BF92DF92F6
:1002B000EF92FF920F931F93CF93DF93EC01F62EF3
:1002C00082E009DF11E0892B09F410E00091D000F1
:1002D0007894D9DF4B015C01CC0FDD1FCF19D10918
:1002E000C10FD11DF12CE12CDD24D394EC16FD06B9
:1002F000E4F48091D000801318C0C5DF2B013C01CD
:10030000DC01CB0188199909AA09BB09843691053A
:10031000A105B10558F31D25612F82E004DF8FEFA1
:10032000E81AF80A53014201E1CFDF91CF911F9102
:100330000F91FF90EF90DF90BF90AF909F908F90C4
:100340007F906F905F904F900895CF92DF92EF92E1
:10035000FF9280E085DFC090AF00D090B000E090C9
:10036000B100F090B200BC01990F880B990BA5D396
:10037000A701960107D320E030E0A9014ED487FD04
:1003800018C080E06DDFBC01990F880B990B95D3E5
:10039000A7019601F7D220E030E040E05FE38AD287
:1003A00059D38BD357D3CB01FF90EF90DF90CF90F1
:1003B000089580E055DFBC01990F880B990B7DD320
:1003C000A7019601DFD220E030E040E05FE371D288
:1003D000E7CF1F920F920FB60F9211242F933F93E6
:1003E0008F939F93AF93BF938091B8009091B90082
:1003F000A091BA00B091BB003091B70026E0230F66
:100400002D3758F50296A11DB11D2093B70080939A
:10041000B8009093B900A093BA00B093BB0080914C
:10042000B3009091B400A091B500B091B6000196D0
:10043000A11DB11D8093B3009093B400A093B500AB
:10044000B093B600BF91AF919F918F913F912F9143
:100450000F900FBE0F901F90189529E8230F039659
:10046000A11DB11DD2CF1F920F920FB60F92112472
:10047000CF92DF92EF92FF920F931F932F933F93B0
:100480004F935F936F937F938F939F93AF93BF939C
:10049000CF93DF93EF93FF93F6DE6093BE007093EC
:1004A000BF008093C0009093C100F8941092BD00EB
:1004B0001092BC0081E00FDE892B09F0C2C0809150
:1004C000D00081118EC08091BE009091BF00A0919C
:1004D000C000B091C10040917500509176006091CC
:1004E0007700709178008C019D01041B150B260B81
:1004F000370BB901A8014A3F51056105710508F0A4
:100500008AC08B3F9105A105B10508F484C021E0A4
:100510002093CF008093750090937600A09377008E
:10052000B093780011E01093D00061E082E0FBDD31
:100530000CDF7C01EC01CC0FDD1FFE01E356FF4F09
:100540006081718186E04DDEFE01E557FF4F6081DD
:10055000718187E046DEC758DF4F0990D881C02DF2
:10056000BE010D2E000C880B990BA7D26093C20020
:100570007093C3008093C4009093C500EF2809F0E6
:100580004DC0BE0188E02DDE1093740061E081E073
:1005900090E085DE789477DE6B017C0180917400B9
:1005A0008823E9F070DE6C197D098E099F0968388F
:1005B00073418105910590F370E060E086E011DE03
:1005C00070E060E087E00DDE70E060E088E009DE6A
:1005D00060E082E0A8DD1092730010927200109229
:1005E00074007894FF91EF91DF91CF91BF91AF911B
:1005F0009F918F917F916F915F914F913F912F913B
:100600001F910F91FF90EF90DF90CF900F900FBE52
:100610000F901F9018951092CF007CCF2091720000
:1006200030917300232B21F4BE0188E0DADDD9CFAD
:1006300020E030E0A901A2D1882399F21093CE00E6
:10064000D0CF809174008823F1F07FDE880F991F4E
:10065000FC01E05AFF4F20813181309373002093D9
:1006600072002115310569F0B901660F771F88EE18
:1006700093E0D7D27093C9006093C80060E0C901CD
:100680000EDE109274001092D0008091CF00811184
:10069000A8CF1092CE0070E060E086E0A2DD70E0AE
:1006A00060E087E09EDD70E060E088E09ADD60E079
:1006B00082E039DD96CF789480B7826080BF80B7C2
:1006C000816080BF83B7826083BF83B7816083BF4F
:1006D00089B7816089BF1EBC8EB582608EBD8EB524
:1006E00081608EBD8FB581608FBD329A319A30980E
:1006F000379A62E081E044DD61E082E041DD80E143
:100700008BBF82E082BB85B7877E806185BFC0E0FA
:10071000D0E01091D000111105C08091CF00882346
:1007200009F441C08091CE008823E9F1ACDDAB0132
:10073000BC018091CA009091CB00A091CC00B091F7
:10074000CD006A017B01C81AD90AEA0AFB0A809126
:10075000C8009091C900092E000CAA0BBB0BC8164B
:10076000D906EA06FB06F8F04093CA005093CB0086
:100770006093CC007093CD008091C6009091C7002B
:1007800070E060E0892B49F46091C2007091C30071
:100790008091C4009091C5005DD17093C7006093B3
:1007A000C60088E01EDD6FDDC090BE00D090BF00A7
:1007B000E090C000F090C1006C197D098E099F097E
:1007C000643277478105910590F05DDD6093BE004E
:1007D0007093BF008093C0009093C1008091BC00D3
:1007E0009091BD0001969093BD008093BC001111C3
:1007F00004C08091CF00882331F08091BC0090919B
:10080000BD000A97DCF01092CF003DDD0091BE00E4
:100810001091BF002091C0003091C100601B710B8E
:10082000820B930B6C3271408105910538F085B7CE
:10083000806285BF889585B78F7D85BF209709F435
:1008400068CFDEDB66CF80E090E0A0E0B3E4809389
:10085000AF009093B000A093B100B093B200EDE967
:10086000F0E023E330E0378726878FEF90E0918B2D
:10087000808BEBE8F0E093838283978386833187D4
:10088000208733872287E9E7F0E09383828395838B
:100890008483318720876091C2007091C30080916A
:1008A000C4009091C500D6D07093C7006093C60075
:1008B00008955058BB27AA270ED075C166D130F0D5
:1008C0006BD120F031F49F3F11F41EF45BC10EF4A4
:1008D000E095E7FB51C1E92F77D180F3BA176207A2
:1008E00073078407950718F071F49EF58FC10EF415
:1008F000E0950B2EBA2FA02D0B01B90190010C0130
:10090000CA01A0011124FF27591B99F0593F50F447
:10091000503E68F11A16F040A22F232F342F44279F
:10092000585FF3CF469537952795A795F040539597
:10093000C9F77EF41F16BA0B620B730B840BBAF067
:100940009150A1F0FF0FBB1F661F771F881FC2F7D2
:100950000EC0BA0F621F731F841F48F487957795E6
:100960006795B795F7959E3F08F0B3CF9395880F9D
:1009700008F09927EE0F979587950895D9D008F438
:1009800081E008950CD00FC107D140F0FED030F0C7
:1009900021F45F3F19F0F0C0511139C1F3C014D1F7
:1009A00098F39923C9F35523B1F3951B550BBB2736
:1009B000AA2762177307840738F09F5F5F4F220FE3
:1009C000331F441FAA1FA9F333D00E2E3AF0E0E8DC
:1009D00030D091505040E695001CCAF729D0FE2F28
:1009E00027D0660F771F881FBB1F261737074807BA
:1009F000AB07B0E809F0BB0B802DBF01FF27935870
:100A00005F4F2AF09E3F510568F0B6C000C15F3FBE
:100A1000ECF3983EDCF3869577956795B795F79557
:100A20009F5FC9F7880F911D9695879597F908954F
:100A3000E1E0660F771F881FBB1F621773078407EB
:100A4000BA0720F0621B730B840BBA0BEE1F88F7FA
:100A5000E095089504D06894B111D9C00895BCD030
:100A600088F09F5790F0B92F9927B751A0F0D1F097
:100A7000660F771F881F991F1AF0BA95C9F712C021
:100A8000B13081F0C3D0B1E00895C0C0672F782F96
:100A90008827B85F39F0B93FCCF38695779567958D
:100AA000B395D9F73EF490958095709561957F4FF9
:100AB0008F4F9F4F0895E89409C097FB3EF490959F
:100AC0008095709561957F4F8F4F9F4F9923A9F027
:100AD000F92F96E9BB279395F695879577956795B6
:100AE000B795F111F8CFFAF4BB0F11F460FF1BC0FA
:100AF0006F5F7F4F8F4F9F4F16C0882311F096E98D
:100B000011C0772321F09EE8872F762F05C066233A
:100B100071F096E8862F70E060E02AF09A95660FF3
:100B2000771F881FDAF7880F9695879597F90895AC
:100B3000990F0008550FAA0BE0E8FEEF16161706EE
:100B4000E807F907C0F012161306E407F50798F056
:100B5000621B730B840B950B39F40A2661F0232B6F
:100B6000242B252B21F408950A2609F4A140A695EB
:100B70008FEF811D811D089597F99F6780E870E0D0
:100B800060E008959FEF80EC089500240A94161603
:100B9000170618060906089500240A94121613066B
:100BA000140605060895092E0394000C11F48823F9
:100BB00052F0BB0F40F4BF2B11F460FF04C06F5F15
:100BC0007F4F8F4F9F4F089557FD9058440F551FEB
:100BD00059F05F3F71F04795880F97FB991F61F0BF
:100BE0009F3F79F087950895121613061406551F36
:100BF000F2CF4695F1DF08C0161617061806991FA2
:100C0000F1CF86957105610508940895E894BB2796
:100C100066277727CB0197F908958ADF08F48FEFCD
:100C2000089597FB072E16F4009406D077FD08D0A0
:100C30000BD007FC05D03EF4909581959F4F089509
:100C4000709561957F4F0895AA1BBB1B51E107C0AA
:100C5000AA1FBB1FA617B70710F0A61BB70B881F4C
:100C6000991F5A95A9F780959095BC01CD010895DB
:100C7000EE0FFF1F0590F491E02D0994F894FFCF3B
:100C80000000080004000200010000000000000055
:020C9000000062
:00000001FF
